:0400000007EF00F016
:0A0008000882FFED04F008EF05F098
:100800000000F0EC04F010EC05F0020E046E040E93
:10081000036EBA0EE82EFED7032EFCD7042EFAD7AD
:1008200000D025EF04F080B418EF04F01AEF04F0C4
:1008300021EF04F080A21FEF04F021EF04F025EF78
:1008400004F0CFEC04F025EF04F081B02AEF04F0BF
:100850002CEF04F013EF04F08FEC04F00704D8B48D
:1008600034EF04F036EF04F046EF04F00604D8B499
:100870003CEF04F03EEF04F046EF04F00504D8A48A
:1008800044EF04F046EF04F025EF04F04CEC04F0E4
:1008900025EF04F007EF00F08C848CB452EF04F0E5
:1008A00054EF04F04DEF04F0030E026E8A0E016E59
:1008B000560EE82EFED7012EFCD7022EFAD78B80DB
:1008C000020E026E450E016EAA0EE82EFED7012E14
:1008D000FCD7022EFAD7FD0ED66ED58E8C868CB63E
:1008E00074EF04F076EF04F06FEF04F0030E026E85
:1008F0008A0E016E560EE82EFED7012EFCD7022E70
:10090000FAD78B90020E026E040E016EBA0EE82E1C
:10091000FED7012EFCD7022EFAD700D0120082B2E9
:1009200094EF04F096EF04F0A4EF04F082A49BEFA0
:1009300004F09DEF04F0A4EF04F0010E076EFA0E30
:10094000D66ED58ECEEF04F082A2A9EF04F0ABEF05
:1009500004F0B9EF04F082B4B0EF04F0B2EF04F0A9
:10096000B9EF04F0010E066EE90ED66ED58ECEEF0D
:1009700004F082B2BEEF04F0C0EF04F0CEEF04F05A
:1009800082B4C5EF04F0C7EF04F0CEEF04F0010E1F
:10099000056EDE0ED66ED58ECEEF04F0120080A46A
:1009A000D4EF04F0D6EF04F0DFEF04F08C8680B2D1
:1009B000DCEF04F0DEEF04F0D7EF04F08C9680A2B9
:1009C000E4EF04F0E6EF04F0EFEF04F08C8080B485
:1009D000ECEF04F0EEEF04F0E7EF04F08C9012007F
:1009E0000F0EC11293689268956A966A9468949003
:1009F000949C896A8A6A8B6A8C6A8D6A12000600E6
:100A0000F29ED59E8C948C96F294F28E08921100F0
:100A1000076A066A056A08900892000101EF04F06F
:0E0A2000D08E780ED56EA80EF26EF184120004
:020000040030CA
:0E0000000008191EFF00A0FF0FC00FE00F4008
:00000001FF
