:04000000FEEF3FF0E0
:10080000000042EC04F0020E026E040E016EBA0EFD
:10081000E82EFED7012EFCD7022EFAD700D08C8608
:1008200080B215EF04F017EF04F010EF04F08C968F
:100830008C8080B41EEF04F020EF04F019EF04F078
:100840008C9081A026EF04F028EF04F021EF04F053
:10085000030E026E8A0E016E560EE82EFED7012E92
:10086000FCD7022EFAD78C82060E026E130E016E92
:10087000AE0EE82EFED7012EFCD7022EFAD78C92B0
:10088000FEEF3FF00F0EC11293689268956A966A68
:10089000896A8A6A8B6A8C6A8D6A94689490949C3F
:0808A0001200000101EF04F059
:047FFC0051EF04F04D
:020000040030CA
:0E0000000008191EFF00A0FF0FC00FE00F4008
:00000001FF
