:040000006CEF00F0B1
:060008002F8200ED0AF05A
:100018002F80D8CF09F0E8CF0AF0E0CF0BF025EC1D
:100028000AF0F2A01AEF00F01CEF00F064EF00F005
:1000380081CF0CF0F29081AC24EF00F026EF00F0B5
:100048002FEF00F0010E2B642CEF00F02EEF00F0E4
:100058002FEF00F02B0681AE34EF00F036EF00F002
:100068003FEF00F0030E2B603CEF00F03EEF00F096
:100078003FEF00F02B2A81A844EF00F046EF00F094
:100088004FEF00F00C0E2A644CEF00F04EEF00F03A
:100098004FEF00F02A0681AA54EF00F056EF00F067
:1000A8005FEF00F00F0E2A605CEF00F05EEF00F0EB
:1000B8005FEF00F02A2A2AC004F02B5089EC07F0E1
:1000C8000BC0E0FF0AC0E8FF09C0D8FF2F9010005E
:0400D800E9EF09F053
:10080000001B111F1F1F111B001B11111111111BA8
:100810001F44455445435441444F00424C414E43CC
:10082000415300494E4943494F004E4547524153B9
:0D083000004D4554414C00486F6C610000C4
:10083E000F6A2E50D8B426EF04F028EF04F04CEFD8
:10084E0004F0116A1150260FD96EDA6ADF50D8A45F
:10085E0033EF04F035EF04F041EF04F01150260FA2
:10086E00D96EDA6A010EDF6E1128090DF3CF10F082
:10087E00A2EF04F0112A030E116448EF04F04AEFC0
:10088E0004F029EF04F0A2EF04F02D50D8B452EF8B
:10089E0004F054EF04F078EF04F0126A1250220FB5
:1008AE00D96EDA6ADF50D8A45FEF04F061EF04F07E
:1008BE006DEF04F01250220FD96EDA6A010EDF6E60
:1008CE001228090DF3CF10F0A2EF04F0122A030E36
:1008DE00126474EF04F076EF04F055EF04F0A2EF1B
:1008EE0004F02C50D8B47EEF04F080EF04F0A2EFA9
:1008FE0004F0136A13501E0FD96EDA6ADF50D8A4B3
:10090E008BEF04F08DEF04F099EF04F013501E0FEF
:10091E00D96EDA6A010EDF6E1328090DF3CF10F0CF
:10092E00A2EF04F0132A030E1364A0EF04F0A2EF5B
:10093E0004F081EF04F08C82BCEF04F081A2AAEFE8
:10094E0004F0ACEF04F0ADEF04F00F2A1A0E0D6EAA
:10095E00F80EE82EFED70D2EFCD700D081A2BAEFEE
:10096E0004F0BCEF04F0B5EF04F010500F18D8A44B
:10097E00C3EF04F0C5EF04F0A5EF04F08C92020E65
:10098E000E6E040E0D6EBA0EE82EFED70D2EFCD78F
:10099E000E2EFAD700D08C848CB4D8EF04F0DAEF98
:1009AE0004F0D3EF04F0030E0E6E8A0E0D6E560E8B
:1009BE00E82EFED70D2EFCD70E2EFAD78B8080BADE
:1009CE00EBEF04F0EDEF04F0E6EF04F0020E0E6E26
:1009DE00450E0D6EAA0EE82EFED70D2EFCD70E2E4E
:1009EE00FAD7FD0ED66ED58E8C868CB601EF05F03D
:1009FE0003EF05F0FCEF04F0030E0E6E8A0E0D6E83
:100A0E00560EE82EFED70D2EFCD70E2EFAD78B9053
:100A1E0080B614EF05F016EF05F00FEF05F0020E9D
:100A2E000E6E040E0D6EBA0EE82EFED70D2EFCD7EE
:100A3E000E2EFAD700D02E6A2D6A2C6A1200136E73
:100A4E00F6EF05F0146A11501424126E12C0F6FF60
:100A5E00080EF76E0800F55085EC09F0142A070E03
:100A6E0014643CEF05F03EEF05F02AEF05F019EFA8
:100A7E0006F0080E156E11501524126EF80E122681
:100A8E0012C0F6FF080EF76E0800F55085EC09F05F
:100A9E00152A0F0E156456EF05F058EF05F042EFCC
:100AAE0005F019EF06F0100E166E11501624126E88
:100ABE00F00E122612C0F6FF080EF76E0800F55063
:100ACE0085EC09F0162A170E166470EF05F072EF1A
:100ADE0005F05CEF05F019EF06F0180E176E1150C9
:100AEE001724126EE80E122612C0F6FF080EF76ECD
:100AFE000800F55085EC09F0172A1F0E17648AEFCF
:100B0E0005F08CEF05F076EF05F019EF06F0200EEC
:100B1E00186E11501824126EE00E122612C0F6FF37
:100B2E00080EF76E0800F55085EC09F0182A270E0E
:100B3E001864A4EF05F0A6EF05F090EF05F019EF9D
:100B4E0006F0280E196E11501924126ED80E1226A8
:100B5E0012C0F6FF080EF76E0800F55085EC09F08E
:100B6E00192A2F0E1964BEEF05F0C0EF05F0AAEF9B
:100B7E0005F019EF06F0300E1A6E11501A24126E8F
:100B8E00D00E122612C0F6FF080EF76E0800F550B2
:100B9E0085EC09F01A2A370E1A64D8EF05F0DAEF51
:100BAE0005F0C4EF05F019EF06F0380E1B6E11506C
:100BBE001B24126EC80E122612C0F6FF080EF76E18
:100BCE000800F55085EC09F01B2A3F0E1B64F2EF6E
:100BDE0005F0F4EF05F0DEEF05F019EF06F0135017
:100BEE00000AD8B429EF05F0010AD8B440EF05F099
:100BFE00030AD8B45AEF05F0010AD8B474EF05F021
:100C0E00070AD8B48EEF05F0010AD8B4A8EF05F0A4
:100C1E00030AD8B4C2EF05F0010AD8B4DCEF05F030
:100C2E0019EF06F01200DAEC09F0F6EC09F07BECA5
:100C3E0008F017EC0AF0090E116E000E26EC05F006
:100C4E00010E116E010E26EC05F01EEC0AF010ECF2
:100C5E000AF0010E106E010E20EC07F02A0E116E36
:100C6E003FEC09F0010E106E020E20EC07F01B0E89
:100C7E00116E3FEC09F0010E106E030E20EC07F022
:100C8E00310E116E3FEC09F0020E1D6E040E1C6E3D
:100C9E00BA0EE82EFED71C2EFCD71D2EFAD700D08A
:100CAE00A9EC06F064EC09F0F28C010E106E040E45
:100CBE0020EC07F0230E116E3FEC09F077EF06F0F3
:100CCE0081B66CEF06F06EEF06F075EF06F081A4BC
:100CDE0073EF06F075EF06F077EF06F018EC09F0FB
:100CEE0081B07CEF06F07EEF06F067EF06F0010EA6
:100CFE00106E040E20EC07F0370E116E3FEC09F06B
:100D0E00F2EC07F02E04D8B48FEF06F091EF06F058
:100D1E00A1EF06F02D04D8B497EF06F099EF06F088
:100D2E00A1EF06F02C04D8A49FEF06F0A1EF06F079
:100D3E0057EF06F01FEC04F039EC08F057EF06F011
:100D4E006CEF00F00C0E106E010E20EC07F0156A21
:100D5E00166A16501E0FD96EDA6ADF50D8A4BAEF93
:100D6E0006F0BCEF06F0C1EF06F0000E85EC09F0C0
:100D7E00C5EF06F0010E85EC09F0152A162A030EB2
:100D8E001664CCEF06F0CEEF06F0B0EF06F00C0EC8
:100D9E00106E020E20EC07F0176A1750220FD96E54
:100DAE00DA6ADF50D8A4DEEF06F0E0EF06F0E5EFEA
:100DBE0006F0000E85EC09F0E9EF06F0010E85EC69
:100DCE0009F0152A172A030E1764F0EF06F0F2EF5A
:100DDE0006F0D4EF06F00C0E106E030E20EC07F0AA
:100DEE00186A1850260FD96EDA6ADF50D8A402EFAF
:100DFE0007F004EF07F009EF07F0000E85EC09F09D
:100E0E000DEF07F0010E85EC09F0152A182A030ED6
:100E1E00186414EF07F016EF07F0F8EF06F00C0E5B
:100E2E00106E010E20EC07F0010E2B6E0C0E2A6ECA
:100E3E001200116E1104D8A427EF07F029EF07F066
:100E4E003AEF07F010507F0F146E14380F0B126E1E
:100E5E0014500F0B136E1250BAEC09F01350BAEC7B
:100E6E0009F088EF07F0020E1118D8A441EF07F031
:100E7E0043EF07F054EF07F01050BF0F146E143805
:100E8E000F0B126E14500F0B136E1250BAEC09F0BA
:100E9E001350BAEC09F088EF07F0030E1118D8A41E
:100EAE005BEF07F05DEF07F06EEF07F010508F0F5E
:100EBE00146E14380F0B126E14500F0B136E12505B
:100ECE00BAEC09F01350BAEC09F088EF07F0040EF3
:100EDE001118D8A475EF07F077EF07F088EF07F039
:100EEE001050CF0F146E14380F0B126E14500F0BD0
:100EFE00136E1250BAEC09F01350BAEC09F088EFE9
:100F0E0007F01200056E0504D8A490EF07F092EFDB
:100F1E0007F0A3EF07F004507F0F086E08380F0B91
:100F2E00066E08500F0B076E0650CAEC09F00750FC
:100F3E00CAEC09F0F1EF07F0020E0518D8A4AAEFDB
:100F4E0007F0ACEF07F0BDEF07F00450BF0F086ECF
:100F5E0008380F0B066E08500F0B076E0650CAECC2
:100F6E0009F00750CAEC09F0F1EF07F0030E05186F
:100F7E00D8A4C4EF07F0C6EF07F0D7EF07F0045080
:100F8E008F0F086E08380F0B066E08500F0B076E8A
:100F9E000650CAEC09F00750CAEC09F0F1EF07F061
:100FAE00040E0518D8A4DEEF07F0E0EF07F0F1EF1E
:100FBE0007F00450CF0F086E08380F0B066E08505E
:100FCE000F0B076E0650CAEC09F00750CAEC09F079
:100FDE00F1EF07F0120082B2F7EF07F0F9EF07F02A
:100FEE0007EF08F082A4FEEF07F000EF08F007EF1E
:100FFE0008F0010E2E6EF90ED66ED58E2FEF08F07C
:10100E0082A20CEF08F00EEF08F01CEF08F082B48D
:10101E0013EF08F015EF08F01CEF08F0010E2D6E1F
:10102E00E80ED66ED58E2FEF08F082B221EF08F0C3
:10103E0023EF08F02FEF08F082B428EF08F02AEF24
:10104E0008F02FEF08F0010E2C6EDC0ED66ED58E4A
:10105E00010E106E040E20EC07F0110E116E3FEC17
:10106E0009F01200106A1050260FD96EDA6ADF509E
:10107E000F6E0FC00DF01050A1EC09F0102A030EE8
:10108E0010644CEF08F04EEF08F03AEF08F0116ADA
:10109E001150220FD96EDA6ADF500F6E0FC00DF0AD
:1010AE001150040FA1EC09F0112A030E116462EF26
:1010BE0008F064EF08F04FEF08F0126A12501E0F9E
:1010CE00D96EDA6ADF500F6E0FC00DF01250080F96
:1010DE00A1EC09F0122A030E126478EF08F07AEFF1
:1010EE0008F065EF08F01200959495969598959AEC
:1010FE00959C959E000EBCEC08F01A0E106EF80E24
:10110E00E82EFED7102EFCD700D0030EBAEC09F055
:10111E00070E106E7D0EE82EFED7102EFCD70000A7
:10112E00030EBAEC09F00F0E106E480EE82EFED725
:10113E00102EFCD7030EBAEC09F0020EBAEC09F031
:10114E00020EBAEC09F0080EBAEC09F0000EBAEC79
:10115E0009F00C0EBAEC09F0000EBAEC09F0060E0E
:10116E00BAEC09F010EC0AF012000D6E0DA0C2EFF1
:10117E0008F0C4EF08F0C7EF08F08C88C8EF08F04D
:10118E008C980DA2CDEF08F0CFEF08F0D2EF08F05B
:10119E008C8AD3EF08F08C9A0DA4D8EF08F0DAEF12
:1011AE0008F0DDEF08F08C8CDEEF08F08C9C0DA6BD
:1011BE00E3EF08F0E5EF08F0E8EF08F08C8EE9EFCA
:1011CE0008F08C9E1200016E01A0F0EF08F0F2EF15
:1011DE0008F0F5EF08F08C88F6EF08F08C9801A275
:1011EE00FBEF08F0FDEF08F000EF09F08C8A01EF3D
:1011FE0009F08C9A01A406EF09F008EF09F00BEF45
:10120E0009F08C8C0CEF09F08C9C01A611EF09F003
:10121E0013EF09F016EF09F08C8E17EF09F08C9E84
:10122E00120081A41DEF09F01FEF09F02AEF09F05B
:10123E00010E85EC09F02A2A81B428EF09F02AEF75
:10124E0009F023EF09F081A62FEF09F031EF09F035
:10125E003CEF09F0000E85EC09F02A2A81B63AEF30
:10126E0009F03CEF09F035EF09F009EC0AF0120035
:10127E00000E146E000E136E52EF09F0115013246F
:10128E00126E12C0F6FF080EF76E0800F55085ECD0
:10129E0009F0134A142A11501324126E12C0F6FFCD
:1012AE00080EF76E0800F5500009D8A461EF09F09A
:1012BE0063EF09F045EF09F0120080A269EF09F023
:1012CE006BEF09F074EF09F08C8680B271EF09F0C4
:1012DE0073EF09F06CEF09F08C9680A479EF09F0AA
:1012EE007BEF09F084EF09F08C8080B481EF09F078
:1012FE0083EF09F07CEF09F08C901200106E105005
:10130E000F0B0E6E1050F00B0F6E8D800F380F0BF3
:10131E00BCEC08F08D820D0EE82EFED700008D92EB
:10132E000E50BCEC08F08D820D0EE82EFED700009C
:10133E008D9212000E6E0EC0A9FF0DC0A8FFA69EC4
:10134E00A69CA684F29E550EA76EAA0EA76EA68226
:10135E00F28EA1A8B5EF09F0B7EF09F0B0EF09F0E2
:10136E00A198A69412000F6E8D900F50BCEC08F051
:10137E008D82060E0E6E300EE82EFED70E2EFCD788
:10138E0000D08D921200036E8D900350EAEC08F09F
:10139E008D82060E026E300EE82EFED7022EFCD780
:1013AE0000D08D9212000F0EC11293689268956A4A
:1013BE00966A94689490949C896A8A6A8B6A8C6AFD
:1013CE008D6A120000EE1EF0110EEE6AE806FDE1C7
:1013DE002F902F92000EF86E00011AEF06F0D08EAD
:1013EE00F286F290F190780ED56EA80EF26EF18420
:1013FE0012000600F29ED59E8C948C96F294F28E7C
:10140E002F921100000EBAEC09F00C0EBAEC09F096
:10141E001200000EBAEC09F0010EBAEC09F012003F
:10142E00040EBAEC09F0000EBAEC09F01200000E30
:10143E00BAEC09F0020EBAEC09F01200000ECAEC7A
:0A144E0009F00F0ECAEC09F01200BD
:020000040030CA
:0E0000000008191EFF00A0FF0FC00FE00F4008
:00000001FF
