:040000006CEF00F0B1
:060008003C82F6ED08F059
:100018003C80D8CF09F0E8CF0AF0E0CF0BF01BEC1A
:1000280009F0F2A01AEF00F01CEF00F064EF00F006
:1000380081CF0CF0F29081AC24EF00F026EF00F0B5
:100048002FEF00F0010E38642CEF00F02EEF00F0D7
:100058002FEF00F0380681AE34EF00F036EF00F0F5
:100068003FEF00F0030E38603CEF00F03EEF00F089
:100078003FEF00F0382A81A844EF00F046EF00F087
:100088004FEF00F00C0E37644CEF00F04EEF00F02D
:100098004FEF00F0370681AA54EF00F056EF00F05A
:1000A8005FEF00F00F0E37605CEF00F05EEF00F0DE
:1000B8005FEF00F0372A37C004F038509CEC06F0A8
:1000C8000BC0E0FF0AC0E8FF09C0D8FF3C90100051
:0400D800DFEF08F05E
:10080000001B111F1F1F111B001B11111111111BA8
:100810001F426C616E636173004E656772617300A5
:070820004D6574616C0000DE
:10082800136EE4EF04F0146A11501424126E12C00F
:10083800F6FF080EF76E0800F55094EC08F0142A3D
:10084800070E14642AEF04F02CEF04F018EF04F0FC
:1008580007EF05F0080E156E11501524126EF80EEC
:10086800122612C0F6FF080EF76E0800F55094EC39
:1008780008F0152A0F0E156444EF04F046EF04F053
:1008880030EF04F007EF05F0100E166E1150162425
:10089800126EF00E122612C0F6FF080EF76E080050
:1008A800F55094EC08F0162A170E16645EEF04F063
:1008B80060EF04F04AEF04F007EF05F0180E176E2A
:1008C80011501724126EE80E122612C0F6FF080EF9
:1008D800F76E0800F55094EC08F0172A1F0E1764FD
:1008E80078EF04F07AEF04F064EF04F007EF05F016
:1008F800200E186E11501824126EE00E122612C027
:10090800F6FF080EF76E0800F55094EC08F0182A68
:10091800270E186492EF04F094EF04F07EEF04F0D1
:1009280007EF05F0280E196E11501924126ED80E13
:10093800122612C0F6FF080EF76E0800F55094EC68
:1009480008F0192A2F0E1964ACEF04F0AEEF04F08A
:1009580098EF04F007EF05F0300E1A6E11501A24C4
:10096800126ED00E122612C0F6FF080EF76E08009F
:10097800F55094EC08F01A2A370E1A64C6EF04F002
:10098800C8EF04F0B2EF04F007EF05F0380E1B6E65
:1009980011501B24126EC80E122612C0F6FF080E44
:1009A800F76E0800F55094EC08F01B2A3F0E1B6404
:1009B800E0EF04F0E2EF04F0CCEF04F007EF05F00D
:1009C8001350000AD8B417EF04F0010AD8B42EEF78
:1009D80004F0030AD8B448EF04F0010AD8B462EF6F
:1009E80004F0070AD8B47CEF04F0010AD8B496EFF3
:1009F80004F0030AD8B4B0EF04F0010AD8B4CAEF7F
:100A080004F007EF05F012000C0E106E010E33EC27
:100A180006F0000E186E000E176E1750020DF350F8
:100A28002F0FD96EDA6ADE50DE10D8A41EEF05F05B
:100A380020EF05F025EF05F0000E94EC08F028EF04
:100A480005F0010E94EC08F0174A182A18BE36EF84
:100A580005F0185009E1040E175CD8A036EF05F030
:100A680038EF05F011EF05F00C0E106E020E33ECA6
:100A780006F0000E1A6E000E196E1950020DF35092
:100A8800270FD96EDA6ADE50DE10D8A44EEF05F0D3
:100A980050EF05F055EF05F0000E94EC08F058EF14
:100AA80005F0010E94EC08F0194A1A2A1ABE66EFEE
:100AB80005F01A5009E1040E195CD8A066EF05F09C
:100AC80068EF05F041EF05F00C0E106E030E33ECE5
:100AD80006F0000E1C6E000E1B6E1B50020DF3502C
:100AE8001F0FD96EDA6ADE50DE10D8A47EEF05F04B
:100AF80080EF05F085EF05F0000E94EC08F088EF24
:100B080005F0010E94EC08F01B4A1C2A1CBE96EF57
:100B180005F01C5009E1040E1B5CD8A096EF05F007
:100B280098EF05F071EF05F00C0E106E010E33EC26
:100B380006F0010E386E0C0E376E1200D0EC08F07D
:100B4800ECEC08F04AEC07F00DEC09F0090E116E18
:100B5800000E14EC04F0010E116E010E14EC04F0FA
:100B680014EC09F006EC09F0010E106E010E33ECDE
:100B780006F0190E116E4EEC08F0010E106E020E02
:100B880033EC06F0110E116E4EEC08F0010E106EEB
:100B9800030E33EC06F0200E116E4EEC08F0020E38
:100BA8001E6E040E1D6EBA0EE82EFED71D2EFCD743
:100BB8001E2EFAD700D008EC05F0F28C04EF06F0F0
:100BC80080B4E9EF05F0EBEF05F0F2EF05F080A255
:100BD800F0EF05F0F2EF05F0F4EF05F073EC08F034
:100BE80081B4F9EF05F0FBEF05F002EF06F081A6FE
:100BF80000EF06F002EF06F004EF06F027EC08F02D
:100C080081A009EF06F00BEF06F0E4EF05F0010E06
:100C1800106E020E33EC06F0010E94EC08F08BEC2B
:100C280007F03B04D8B41BEF06F01DEF06F02DEFDC
:100C380006F03A04D8B423EF06F025EF06F02DEFBE
:100C480006F03904D8A42BEF06F02DEF06F0DFEFFD
:100C580005F005EC07F0DFEF05F06CEF00F0116E22
:100C68001104D8A43AEF06F03CEF06F04DEF06F079
:100C780010507F0F146E14380F0B126E14500F0B98
:100C8800136E1250B0EC08F01350B0EC08F09BEF64
:100C980006F0020E1118D8A454EF06F056EF06F02D
:100CA80067EF06F01050BF0F146E14380F0B126E5A
:100CB80014500F0B136E1250B0EC08F01350B0EC38
:100CC80008F09BEF06F0030E1118D8A46EEF06F09B
:100CD80070EF06F081EF06F010508F0F146E143885
:100CE8000F0B126E14500F0B136E1250B0EC08F06D
:100CF8001350B0EC08F09BEF06F0040E1118D8A4BE
:100D080088EF06F08AEF06F09BEF06F01050CF0F41
:100D1800146E14380F0B126E14500F0B136E125002
:100D2800B0EC08F01350B0EC08F09BEF06F012009E
:100D3800056E0504D8A4A3EF06F0A5EF06F0B6EFFC
:100D480006F004507F0F086E08380F0B066E085027
:100D58000F0B076E0650C0EC08F00750C0EC08F007
:100D680004EF07F0020E0518D8A4BDEF06F0BFEF98
:100D780006F0D0EF06F00450BF0F086E08380F0BCE
:100D8800066E08500F0B076E0650C0EC08F00750AF
:100D9800C0EC08F004EF07F0030E0518D8A4D7EF4D
:100DA80006F0D9EF06F0EAEF06F004508F0F086E50
:100DB80008380F0B066E08500F0B076E0650C0EC74
:100DC80008F00750C0EC08F004EF07F0040E05180F
:100DD800D8A4F1EF06F0F3EF06F004EF07F00450A3
:100DE800CF0F086E08380F0B066E08500F0B076EF2
:100DF8000650C0EC08F00750C0EC08F004EF07F00C
:100E080012008C828C928C848CB40DEF07F00FEF5B
:100E180007F008EF07F0030E0E6E8A0E0D6E560EE1
:100E2800E82EFED70D2EFCD70E2EFAD78B80020E99
:100E38000E6E450E0D6EAA0EE82EFED70D2EFCD7AF
:100E48000E2EFAD7FD0ED66ED58E8C868CB62FEF69
:100E580007F031EF07F02AEF07F0030E0E6E8A0E47
:100E68000D6E560EE82EFED70D2EFCD70E2EFAD795
:100E78008B90020E0E6E040E0D6EBA0EE82EFED783
:100E88000D2EFCD70E2EFAD700D012009594959609
:100E98009598959A959C959E000ECBEC07F01A0EA6
:100EA800106EF80EE82EFED7102EFCD700D0030ED9
:100EB800B0EC08F0070E106E7D0EE82EFED7102E4F
:100EC800FCD70000030EB0EC08F00F0E106E480EB1
:100ED800E82EFED7102EFCD7030EB0EC08F0020E59
:100EE800B0EC08F0020EB0EC08F0080EB0EC08F018
:100EF800000EB0EC08F00C0EB0EC08F0000EB0ECF0
:100F080008F0060EB0EC08F006EC09F0120082B208
:100F180090EF07F092EF07F0A0EF07F082A497EFA9
:100F280007F099EF07F0A0EF07F0010E3B6EFA0EFD
:100F3800D66ED58ECAEF07F082A2A5EF07F0A7EF0D
:100F480007F0B5EF07F082B4ACEF07F0AEEF07F0AB
:100F5800B5EF07F0010E3A6EE90ED66ED58ECAEFE0
:100F680007F082B2BAEF07F0BCEF07F0CAEF07F05C
:100F780082B4C1EF07F0C3EF07F0CAEF07F0010E24
:100F8800396EDE0ED66ED58ECAEF07F012000D6EE2
:100F98000DA0D1EF07F0D3EF07F0D6EF07F08C885C
:100FA800D7EF07F08C980DA2DCEF07F0DEEF07F023
:100FB800E1EF07F08C8AE2EF07F08C9A0DA4E7EFD7
:100FC80007F0E9EF07F0ECEF07F08C8CEDEF07F096
:100FD8008C9C0DA6F2EF07F0F4EF07F0F7EF07F09F
:100FE8008C8EF8EF07F08C9E1200016E01A0FFEFC7
:100FF80007F001EF08F004EF08F08C8805EF08F01F
:101008008C9801A20AEF08F00CEF08F00FEF08F037
:101018008C8A10EF08F08C9A01A415EF08F017EFEE
:1010280008F01AEF08F08C8C1BEF08F08C9C01A6D6
:1010380020EF08F022EF08F025EF08F08C8E26EF5D
:1010480008F08C9E120081A62CEF08F02EEF08F015
:1010580039EF08F0010E94EC08F0372A81B637EF23
:1010680008F039EF08F032EF08F081A43EEF08F0FD
:1010780040EF08F04BEF08F0000E94EC08F0372A28
:1010880081B449EF08F04BEF08F044EF08F0FFECAB
:1010980008F01200000E146E000E136E61EF08F0D7
:1010A80011501324126E12C0F6FF080EF76E0800D6
:1010B800F55094EC08F0134A142A11501324126EB8
:1010C80012C0F6FF080EF76E0800F5500009D8A404
:1010D80070EF08F072EF08F054EF08F0120080A2E9
:1010E80078EF08F07AEF08F083EF08F08C8680B28A
:1010F80080EF08F082EF08F07BEF08F08C9680A470
:1011080088EF08F08AEF08F093EF08F08C8080B43D
:1011180090EF08F092EF08F08BEF08F08C90120037
:10112800106E10500F0B0E6E1050F00B0F6E8D805E
:101138000F380F0BCBEC07F08D820D0EE82EFED783
:1011480000008D920E50CBEC07F08D820D0EE82E2C
:10115800FED700008D9212000F6E8D900F50CBECD1
:1011680007F08D82060E0E6E300EE82EFED70E2E7C
:10117800FCD700D08D921200036E8D900350F9ECCD
:1011880007F08D82060E026E300EE82EFED7022E74
:10119800FCD700D08D9212000F0EC112936892688E
:1011A800956A966A94689490949C896A8A6A8B6A0C
:1011B8008C6A8D6A120000EE1FF01D0EEE6AE806BA
:1011C800FDE13C903C92000EF86E0001A2EF05F0A4
:1011D800D08EF286F290F190780ED56EA80EF26E4F
:1011E800F18412000600F29ED59E8C948C96F2949F
:1011F800F28E3C921100000EB0EC08F00C0EB0EC30
:1012080008F01200000EB0EC08F0010EB0EC08F087
:101218001200040EB0EC08F0000EB0EC08F012005A
:10122800000EB0EC08F0020EB0EC08F01200000E50
:0C123800C0EC08F00F0EC0EC08F0120033
:020000040030CA
:0E0000000008191EFF00A0FF0FC00FE00F4008
:00000001FF
