:040000006CEF00F0B1
:060008002F820AED09F051
:100018002F80D8CF09F0E8CF0AF0E0CF0BF037EC0B
:1000280009F0F2A01AEF00F01CEF00F064EF00F006
:1000380081CF0CF0F29081AC24EF00F026EF00F0B5
:100048002FEF00F0010E2B642CEF00F02EEF00F0E4
:100058002FEF00F02B0681AE34EF00F036EF00F002
:100068003FEF00F0030E2B603CEF00F03EEF00F096
:100078003FEF00F02B2A81A844EF00F046EF00F094
:100088004FEF00F00C0E2A644CEF00F04EEF00F03A
:100098004FEF00F02A0681AA54EF00F056EF00F067
:1000A8005FEF00F00F0E2A605CEF00F05EEF00F0EB
:1000B8005FEF00F02A2A2AC004F02B5077EC06F0F4
:1000C8000BC0E0FF0AC0E8FF09C0D8FF2F9010005E
:0400D800F3EF08F04A
:10080000001B111F1F1F111B001B11111111111BA8
:100810001F424C414E434153004E45475241530005
:070820004D4554414C00005E
:10082800136EE4EF04F0146A11501424126E12C00F
:10083800F6FF080EF76E0800F550A8EC08F0142A29
:10084800070E14642AEF04F02CEF04F018EF04F0FC
:1008580007EF05F0080E156E11501524126EF80EEC
:10086800122612C0F6FF080EF76E0800F550A8EC25
:1008780008F0152A0F0E156444EF04F046EF04F053
:1008880030EF04F007EF05F0100E166E1150162425
:10089800126EF00E122612C0F6FF080EF76E080050
:1008A800F550A8EC08F0162A170E16645EEF04F04F
:1008B80060EF04F04AEF04F007EF05F0180E176E2A
:1008C80011501724126EE80E122612C0F6FF080EF9
:1008D800F76E0800F550A8EC08F0172A1F0E1764E9
:1008E80078EF04F07AEF04F064EF04F007EF05F016
:1008F800200E186E11501824126EE00E122612C027
:10090800F6FF080EF76E0800F550A8EC08F0182A54
:10091800270E186492EF04F094EF04F07EEF04F0D1
:1009280007EF05F0280E196E11501924126ED80E13
:10093800122612C0F6FF080EF76E0800F550A8EC54
:1009480008F0192A2F0E1964ACEF04F0AEEF04F08A
:1009580098EF04F007EF05F0300E1A6E11501A24C4
:10096800126ED00E122612C0F6FF080EF76E08009F
:10097800F550A8EC08F01A2A370E1A64C6EF04F0EE
:10098800C8EF04F0B2EF04F007EF05F0380E1B6E65
:1009980011501B24126EC80E122612C0F6FF080E44
:1009A800F76E0800F550A8EC08F01B2A3F0E1B64F0
:1009B800E0EF04F0E2EF04F0CCEF04F007EF05F00D
:1009C8001350000AD8B417EF04F0010AD8B42EEF78
:1009D80004F0030AD8B448EF04F0010AD8B462EF6F
:1009E80004F0070AD8B47CEF04F0010AD8B496EFF3
:1009F80004F0030AD8B4B0EF04F0010AD8B4CAEF7F
:100A080004F007EF05F01200E4EC08F000EC09F040
:100A180025EC07F029EC09F0090E116E000E14EC14
:100A280004F0010E116E010E14EC04F030EC09F024
:100A3800A6EC07F022EC09F0010E106E010E0EEC88
:100A480006F0190E116E62EC08F0010E106E020E1F
:100A58000EEC06F0110E116E62EC08F0010E106E2D
:100A6800030E0EEC06F0200E116E62EC08F0020E7A
:100A78001D6E040E1C6EBA0EE82EFED71C2EFCD777
:100A88001D2EFAD700D09BEC05F0F28C6CEF05F028
:100A980080B451EF05F053EF05F05AEF05F080A24E
:100AA80058EF05F05AEF05F05CEF05F087EC08F019
:100AB80081B461EF05F063EF05F06AEF05F081A6F8
:100AC80068EF05F06AEF05F06CEF05F03BEC08F015
:100AD80081A071EF05F073EF05F04CEF05F0010E02
:100AE800106E020E0EEC06F0010EA8EC08F066EC93
:100AF80007F02E04D8B483EF05F085EF05F095EFE5
:100B080005F02D04D8B48BEF05F08DEF05F095EFC7
:100B180005F02C04D8A493EF05F095EF05F047EF06
:100B280005F0E0EC06F047EF05F06CEF00F00C0E76
:100B3800106E010E0EEC06F0156A1550260FD96ED0
:100B4800DA6ADF50D8A4ABEF05F0ADEF05F0B2EFED
:100B580005F0000EA8EC08F0B5EF05F0010EA8ECC2
:100B680008F0152A030E1564BCEF05F0BEEF05F07A
:100B7800A1EF05F00C0E106E020E0EEC06F0166AD0
:100B88001650220FD96EDA6ADF50D8A4CEEF05F0DE
:100B9800D0EF05F0D5EF05F0000EA8EC08F0D8EF7F
:100BA80005F0010EA8EC08F0162A030E1664DFEF14
:100BB80005F0E1EF05F0C4EF05F00C0E106E030E22
:100BC8000EEC06F0176A17501E0FD96EDA6ADF505E
:100BD800D8A4F1EF05F0F3EF05F0F8EF05F0000EFB
:100BE800A8EC08F0FBEF05F0010EA8EC08F0172AB6
:100BF800030E176402EF06F004EF06F0E7EF05F0C6
:100C08000C0E106E010E0EEC06F0010E2B6E0C0E83
:100C18002A6E1200116E1104D8A415EF06F017EF12
:100C280006F028EF06F010507F0F146E14380F0BE3
:100C3800126E14500F0B136E1250C4EC08F01350C0
:100C4800C4EC08F076EF06F0020E1118D8A42FEFC6
:100C580006F031EF06F042EF06F01050BF0F146EA9
:100C680014380F0B126E14500F0B136E1250C4EC85
:100C780008F01350C4EC08F076EF06F0030E1118D4
:100C8800D8A449EF06F04BEF06F05CEF06F01050E1
:100C98008F0F146E14380F0B126E14500F0B136E47
:100CA8001250C4EC08F01350C4EC08F076EF06F0CC
:100CB800040E1118D8A463EF06F065EF06F076EF7E
:100CC80006F01050CF0F146E14380F0B126E14501C
:100CD8000F0B136E1250C4EC08F01350C4EC08F05C
:100CE80076EF06F01200056E0504D8A47EEF06F034
:100CF80080EF06F091EF06F004507F0F086E083879
:100D08000F0B066E08500F0B076E0650D4EC08F058
:100D18000750D4EC08F0DFEF06F0020E0518D8A44F
:100D280098EF06F09AEF06F0ABEF06F00450BF0F0D
:100D3800086E08380F0B066E08500F0B076E06502A
:100D4800D4EC08F00750D4EC08F0DFEF06F0030EFF
:100D58000518D8A4B2EF06F0B4EF06F0C5EF06F018
:100D680004508F0F086E08380F0B066E08500F0BD3
:100D7800076E0650D4EC08F00750D4EC08F0DFEF0B
:100D880006F0040E0518D8A4CCEF06F0CEEF06F056
:100D9800DFEF06F00450CF0F086E08380F0B066E11
:100DA80008500F0B076E0650D4EC08F00750D4EC2F
:100DB80008F0DFEF06F012008C828C928C848CB4E1
:100DC800E8EF06F0EAEF06F0E3EF06F0030E0E6E2A
:100DD8008A0E0D6E560EE82EFED70D2EFCD70E2E5F
:100DE800FAD78B80020E0E6E450E0D6EAA0EE82EF7
:100DF800FED70D2EFCD70E2EFAD7FD0ED66ED58E49
:100E08008C868CB60AEF07F00CEF07F005EF07F0B9
:100E1800030E0E6E8A0E0D6E560EE82EFED70D2EA0
:100E2800FCD70E2EFAD78B90020E0E6E040E0D6EA6
:100E3800BA0EE82EFED70D2EFCD70E2EFAD700D00C
:100E48001200959495969598959A959C959E000E66
:100E5800DFEC07F01A0E106EF80EE82EFED7102EF3
:100E6800FCD700D0030EC4EC08F0070E106E7D0E00
:100E7800E82EFED7102EFCD70000030EC4EC08F0B5
:100E88000F0E106E480EE82EFED7102EFCD7030E5C
:100E9800C4EC08F0020EC4EC08F0020EC4EC08F032
:100EA800080EC4EC08F0000EC4EC08F00C0EC4ECFC
:100EB80008F0000EC4EC08F0060EC4EC08F022ECB2
:100EC80009F0120082B26BEF07F06DEF07F07BEFCD
:100ED80007F082A472EF07F074EF07F07BEF07F0DA
:100EE800010E2E6EFA0ED66ED58EA5EF07F082A2F1
:100EF80080EF07F082EF07F090EF07F082B487EFFA
:100F080007F089EF07F090EF07F0010E2D6EE90E5C
:100F1800D66ED58EA5EF07F082B295EF07F097EF62
:100F280007F0A5EF07F082B49CEF07F09EEF07F0FB
:100F3800A5EF07F0010E2C6EDE0ED66ED58EA5EF4E
:100F480007F012000E6A0E50260FD96EDA6A0E509C
:100F580013EC09F0DF6E0E2A030E0E64B6EF07F0ED
:100F6800B8EF07F0A7EF07F00F6A0F50220FD96EFE
:100F7800DA6A0F50040F13EC09F0DF6E0F2A030E24
:100F88000F64C9EF07F0CBEF07F0B9EF07F0106A6D
:100F980010501E0FD96EDA6A1050080F13EC09F0C2
:100FA800DF6E102A030E1064DCEF07F0DEEF07F0A7
:100FB800CCEF07F012000D6E0DA0E5EF07F0E7EF9C
:100FC80007F0EAEF07F08C88EBEF07F08C980DA29A
:100FD800F0EF07F0F2EF07F0F5EF07F08C8AF6EF85
:100FE80007F08C9A0DA4FBEF07F0FDEF07F000EF78
:100FF80008F08C8C01EF08F08C9C0DA606EF08F029
:1010080008EF08F00BEF08F08C8E0CEF08F08C9EC0
:101018001200016E01A013EF08F015EF08F018EFA9
:1010280008F08C8819EF08F08C9801A21EEF08F0E0
:1010380020EF08F023EF08F08C8A24EF08F08C9A50
:1010480001A429EF08F02BEF08F02EEF08F08C8CA4
:101058002FEF08F08C9C01A634EF08F036EF08F06B
:1010680039EF08F08C8E3AEF08F08C9E120081A6BA
:1010780040EF08F042EF08F04DEF08F0010EA8EC41
:1010880008F02A2A81B64BEF08F04DEF08F046EF3A
:1010980008F081A452EF08F054EF08F05FEF08F071
:1010A800000EA8EC08F02A2A81B45DEF08F05FEF83
:1010B80008F058EF08F01BEC09F01200000E146E4F
:1010C800000E136E75EF08F011501324126E12C043
:1010D800F6FF080EF76E0800F550A8EC08F0134A62
:1010E800142A11501324126E12C0F6FF080EF76E60
:1010F8000800F5500009D8A484EF08F086EF08F03E
:1011080068EF08F0120080A28CEF08F08EEF08F06C
:1011180097EF08F08C8680B294EF08F096EF08F00D
:101128008FEF08F08C9680A49CEF08F09EEF08F0F3
:10113800A7EF08F08C8080B4A4EF08F0A6EF08F0C1
:101148009FEF08F08C901200106E10500F0B0E6E6F
:101158001050F00B0F6E8D800F380F0BDFEC07F07F
:101168008D820D0EE82EFED700008D920E50DFEC1A
:1011780007F08D820D0EE82EFED700008D9212002A
:101188000F6E8D900F50DFEC07F08D82060E0E6EFD
:10119800300EE82EFED70E2EFCD700D08D9212000E
:1011A800036E8D9003500DEC08F08D82060E026ED2
:1011B800300EE82EFED7022EFCD700D08D921200FA
:1011C8000F0EC11293689268956A966A9468949013
:1011D800949C896A8A6A8B6A8C6A8D6A120000EE0E
:1011E8001EF0110EEE6AE806FDE12F902F92000E18
:1011F800F86E000108EF05F0D08EF286F290F190BB
:10120800780ED56EA80EF26EF18412000600F29EDA
:10121800D59E8C948C96F294F28E2F9211000D6EBE
:101228000DC0A9FFA69EA69CA680A8501200000E7D
:10123800C4EC08F00C0EC4EC08F01200000EC4EC6C
:1012480008F0010EC4EC08F01200040EC4EC08F01B
:10125800000EC4EC08F01200000EC4EC08F0020EF8
:10126800C4EC08F01200000ED4EC08F00F0ED4EC19
:0412780008F0120068
:020000040030CA
:0E0000000008191EFF00A0FF0FC00FE00F4008
:00000001FF
