:040000006CEF00F0B1
:060008004A8282ED0EF0B9
:100018004A80D8CF09F0E8CF0AF0E0CF0BF0AFEC78
:100028000EF0F2A01AEF00F01CEF00F064EF00F001
:1000380081CF0CF0F29081AC24EF00F026EF00F0B5
:100048002FEF00F0010E46642CEF00F02EEF00F0C9
:100058002FEF00F0460681AE34EF00F036EF00F0E7
:100068003FEF00F0030E46603CEF00F03EEF00F07B
:100078003FEF00F0462A81A844EF00F046EF00F079
:100088004FEF00F00D0E45644CEF00F04EEF00F01E
:100098004FEF00F0450681AA54EF00F056EF00F04C
:1000A8005FEF00F00F0E45605CEF00F05EEF00F0D0
:1000B8005FEF00F0452A45C004F04650B3EC09F064
:1000C8000BC0E0FF0AC0E8FF09C0D8FF4A90100043
:0400D80016EF0EF021
:10080000001B111F1F1F111B001B11111111111BA8
:100810001F202020202020202020202020004445B0
:100820005445435441444F00424C414E43415300D0
:10083000494E4943494F004E4547524153004D45AB
:0B08400054414C00583D0025640000AE
:10084C004150D8B42CEF04F02EEF04F03FEF04F03D
:10085C003E50D8B434EF04F036EF04F03FEF04F020
:10086C0000018051D8A43DEF04F03FEF04F080EF7D
:10087C0004F0000E00018A6F130E896F4950D8B432
:10088C004AEF04F04CEF04F058EF04F04150D8A4B8
:10089C0052EF04F054EF04F058EF04F0010E416EE7
:1008AC002EEF05F04850D8B45EEF04F060EF04F082
:1008BC006CEF04F03E50D8A466EF04F068EF04F03F
:1008CC006CEF04F0010E3E6E2EEF05F04750D8B4DD
:1008DC0072EF04F074EF04F080EF04F08051D8A4B0
:1008EC007AEF04F07CEF04F080EF04F0010E806FDF
:1008FC002EEF05F04250D8B486EF04F088EF04F0E8
:10090C0098EF04F03F50D8B48EEF04F090EF04F061
:10091C0098EF04F08151D8A496EF04F098EF04F00E
:10092C00D8EF04F0000E8A6F250E896F4950D8B4A9
:10093C00A2EF04F0A4EF04F0B0EF04F04250D8A4FE
:10094C00AAEF04F0ACEF04F0B0EF04F0010E426E2D
:10095C002EEF05F04850D8B4B6EF04F0B8EF04F021
:10096C00C4EF04F03F50D8A4BEEF04F0C0EF04F085
:10097C00C4EF04F0010E3F6E2EEF05F04750D8B4D3
:10098C00CAEF04F0CCEF04F0D8EF04F08151D8A4F6
:10099C00D2EF04F0D4EF04F0D8EF04F0010E816F25
:1009AC002EEF05F04350D8B4DEEF04F0E0EF04F086
:1009BC00F0EF04F04050D8B4E6EF04F0E8EF04F0A8
:1009CC00F0EF04F08251D8A4EEEF04F0F0EF04F055
:1009DC002EEF05F0000E8A6F370E896F4950D8B490
:1009EC00FAEF04F0FCEF04F008EF05F04350D8A444
:1009FC0002EF05F004EF05F008EF05F0010E436E71
:100A0C002EEF05F04850D8B40EEF05F010EF05F0BE
:100A1C001CEF05F04050D8A416EF05F018EF05F0C8
:100A2C001CEF05F0010E406E2EEF05F04750D8B4C8
:100A3C0022EF05F024EF05F02EEF05F08251D8A43B
:100A4C002AEF05F02CEF05F02EEF05F0010E826F6A
:100A5C001200136EFFEF05F0146A11501424126E7D
:100A6C0012C0F6FF080EF76E0800F550ADEC0DF055
:100A7C00142A070E146445EF05F047EF05F033EF29
:100A8C0005F022EF06F0080E156E11501524126EAB
:100A9C00F80E122612C0F6FF080EF76E0800F5507D
:100AAC00ADEC0DF0152A0F0E15645FEF05F061EF3C
:100ABC0005F04BEF05F022EF06F0100E166E1150FC
:100ACC001624126EF00E122612C0F6FF080EF76EE8
:100ADC000800F550ADEC0DF0162A170E166479EFE0
:100AEC0005F07BEF05F065EF05F022EF06F0180E30
:100AFC00176E11501724126EE80E122612C0F6FF54
:100B0C00080EF76E0800F550ADEC0DF0172A1F0E0D
:100B1C00176493EF05F095EF05F07FEF05F022EFEA
:100B2C0006F0200E186E11501824126EE00E1226CC
:100B3C0012C0F6FF080EF76E0800F550ADEC0DF084
:100B4C00182A270E1864ADEF05F0AFEF05F099EFFA
:100B5C0005F022EF06F0280E196E11501924126EB2
:100B6C00D80E122612C0F6FF080EF76E0800F550CC
:100B7C00ADEC0DF0192A2F0E1964C7EF05F0C9EF73
:100B8C0005F0B3EF05F022EF06F0300E1A6E11509F
:100B9C001A24126ED00E122612C0F6FF080EF76E33
:100BAC000800F550ADEC0DF01A2A370E1A64E1EF7F
:100BBC0005F0E3EF05F0CDEF05F022EF06F0380E6F
:100BCC001B6E11501B24126EC80E122612C0F6FF9B
:100BDC00080EF76E0800F550ADEC0DF01B2A3F0E19
:100BEC001B64FBEF05F0FDEF05F0E7EF05F022EFDE
:100BFC0006F01350000AD8B432EF05F0010AD8B44D
:100C0C0049EF05F0030AD8B463EF05F0010AD8B434
:100C1C007DEF05F0070AD8B497EF05F0010AD8B4B8
:100C2C00B1EF05F0030AD8B4CBEF05F0010AD8B444
:100C3C00E5EF05F022EF06F012001850D96EDA6AD3
:100C4C00DFCFF6FF080EF76E0800F550250AD8A482
:100C5C0032EF06F034EF06F0EEEF06F01850D96ED6
:100C6C00DA6ADF2A000E0001846F000E836F83C0E6
:100C7C0044F0856986691850D96EDA6ADF501C6EAB
:100C8C001CC0F6FF080EF76E0800F550640AD8B4C5
:100C9C0052EF06F054EF06F062EF06F01CC0F6FFC0
:100CAC00080EF76E0800F550690AD8A460EF06F03C
:100CBC0062EF06F0E8EF06F01950D96EDA6A020E10
:100CCC00DF26DF5CD96EDA6ADECF1DF0DECF1EF0D8
:100CDC001850D96EDA6A1C28DF6E200E216E1EBEEB
:100CEC007AEF06F07DEF06F0010E7EEF06F0000EB7
:100CFC001B6E21062150600FD96EDA6A1DC00DF0F3
:100D0C001EC00EF0000E106E0A0E0F6E7DEC0AF077
:100D1C000DC013F00EC014F0E3EC0DF01350300FB7
:100D2C00DF6E1DC00DF01EC00EF0000E106E0A0E10
:100D3C000F6E1CEC0AF00DC01DF00EC01EF01D5005
:100D4C001E10D8B4ACEF06F0AEEF06F0B6EF06F01E
:100D5C002150D8A4B4EF06F0B6EF06F07FEF06F002
:100D6C002150D8B4BCEF06F0BEEF06F0DDEF06F074
:100D7C001B50D8B4C4EF06F0C6EF06F0DDEF06F05A
:100D8C0021062150600FD96EDA6A2D0EDF6EDDEF71
:100D9C0006F02150600FD96EDA6ADF501A6E1A50C5
:100DAC000D6E0E6A17C00FF0D4EC0AF0212A200E3B
:100DBC002118D8A4E4EF06F0E6EF06F0CFEF06F02A
:100DCC00FFEF06F01850D96EDA6ADF2AFFEF06F053
:100DDC001850D96EDA6ADFCFF6FF080EF76E0800EE
:100DEC00F5500D6E0E6A17C00FF0D4EC0AF0E8EF58
:100DFC0006F01200000E3B6E000E3A6E010E106EE5
:100E0C00040E4AEC09F0110E116E1150D8A4080E04
:100E1C00126E39EC0CF026EC04F00C0E106E040E75
:100E2C004AEC09F0440E116E1150D8A4080E126E43
:100E3C0039EC0CF08C8233EF07F081A228EF07F02D
:100E4C002AEF07F033EF07F03A4A3B2A81B231EF31
:100E5C0007F033EF07F02CEF07F0000189513A1837
:100E6C0007E18A513B18D8A43EEF07F040EF07F09A
:100E7C0023EF07F03AC036F03BC037F029EC0EF008
:100E8C008C92020E396E040E386EBA0EE82EFED716
:100E9C00382EFCD7392EFAD700D08C848CB459EF6D
:100EAC0007F05BEF07F054EF07F0020E396E450EBA
:100EBC00386EAA0EE82EFED7382EFCD7392EFAD76C
:100ECC008B8080BA6CEF07F06EEF07F067EF07F0DE
:100EDC00020E396E450E386EAA0EE82EFED7382E4D
:100EEC00FCD7392EFAD7FB0ED66ED58E8C868CB6E7
:100EFC0082EF07F084EF07F07DEF07F0020E396EFA
:100F0C00450E386EAA0EE82EFED7382EFCD7392E99
:100F1C00FAD78B9080B695EF07F097EF07F090EF2C
:100F2C0007F0020E396E040E386EBA0EE82EFED79C
:100F3C00382EFCD7392EFAD700D0496A486A476A4E
:100F4C00120069EC0EF078EC0EF0F8EC0BF0A1EC62
:100F5C000EF0090E116E000E2FEC05F0010E116E45
:100F6C00010E2FEC05F0A8EC0EF078EC0CF09AECDE
:100F7C000EF0010E106E010E4AEC09F0370E116ED8
:100F8C001150D8A4080E126E39EC0CF0010E106E34
:100F9C00020E4AEC09F0280E116E1150D8A4080E5E
:100FAC00126E39EC0CF0010E106E030E4AEC09F0C7
:100FBC003E0E116E1150D8A4080E126E39EC0CF0C6
:100FCC00020E3D6E040E3C6EBA0EE82EFED73C2E81
:100FDC00FCD73D2EFAD700D0C9EC08F06DEC0DF023
:100FEC00F28C010E106E040E4AEC09F0300E116EEC
:100FFC001150D8A4080E126E39EC0CF016EF08F054
:10100C0081B60BEF08F00DEF08F014EF08F081A497
:10101C0012EF08F014EF08F016EF08F074EC0BF078
:10102C0081B01BEF08F01DEF08F006EF08F029EC7B
:10103C000BF041EC08F04904D8B427EF08F029EF85
:10104C0008F039EF08F04804D8B42FEF08F031EF6E
:10105C0008F039EF08F04704D8A437EF08F039EF5F
:10106C0008F0F2EF07F000EC07F0B6EC0BF0F2EF43
:10107C0007F06CEF00F0000E156E000E146E000EF3
:10108C000F6E000E0E6E0E50410FD96EDA6ADF50E5
:10109C000D6E0D501426000E15220E4A0F2A0FBE8F
:1010AC0061EF08F00F5009E1030E0E5CD8A061EF60
:1010BC0008F063EF08F049EF08F0030E1418151050
:1010CC00D8A46BEF08F06DEF08F06EEF08F0496AEA
:1010DC00000E156E000E146E000E116E000E106ECA
:1010EC0010503E0FD96EDA6ADF500D6E0D5014267B
:1010FC00000E1522104A112A11BE8EEF08F0115065
:10110C0009E1030E105CD8A08EEF08F090EF08F008
:10111C0076EF08F0030E14181510D8A498EF08F009
:10112C009AEF08F09BEF08F0486A000E156E000E5F
:10113C00146E000E136E000E126E1250800FD96ECC
:10114C00DA6ADF500D6E0D501426000E1522124A6D
:10115C00132A13BEBBEF08F0135009E1030E125C07
:10116C00D8A0BBEF08F0BDEF08F0A3EF08F0030E1A
:10117C0014181510D8A4C5EF08F0C7EF08F0C8EF85
:10118C0008F0476A12000D0E106E010E4AEC09F0C1
:10119C00156A166A1650800FD96EDA6ADF50D8A419
:1011AC00DAEF08F0DCEF08F0E1EF08F0000EADEC40
:1011BC000DF0E5EF08F0010EADEC0DF0152A162A36
:1011CC00020E1664ECEF08F0EEEF08F0D0EF08F02A
:1011DC000D0E106E020E4AEC09F0176A17503E0FF6
:1011EC00D96EDA6ADF50D8A4FEEF08F000EF09F0F0
:1011FC0005EF09F0000EADEC0DF009EF09F0010E52
:10120C00ADEC0DF0152A172A020E176410EF09F039
:10121C0012EF09F0F4EF08F00D0E106E030E4AEC0D
:10122C0009F0186A1850410FD96EDA6ADF50D8A449
:10123C0022EF09F024EF09F029EF09F0000EADECD4
:10124C000DF02DEF09F0010EADEC0DF0152A182A5A
:10125C00020E186434EF09F036EF09F018EF09F0BC
:10126C000D0E106E010E4AEC09F0010E466E0D0EBD
:10127C00456E090E1518D8A446EF09F048EF09F091
:10128C0049EF09F0828C1200116E1104D8A451EFB1
:10129C0009F053EF09F064EF09F010507F0F146E52
:1012AC0014380F0B126E14500F0B136E125049ECB6
:1012BC000EF0135049EC0EF0B2EF09F0020E1118BB
:1012CC00D8A46BEF09F06DEF09F07EEF09F0105028
:1012DC00BF0F146E14380F0B126E14500F0B136ECD
:1012EC00125049EC0EF0135049EC0EF0B2EF09F02D
:1012FC00030E1118D8A485EF09F087EF09F098EFC9
:10130C0009F010508F0F146E14380F0B126E14500E
:10131C000F0B136E125049EC0EF0135049EC0EF0FB
:10132C00B2EF09F0040E1118D8A49FEF09F0A1EF49
:10133C0009F0B2EF09F01050CF0F146E14380F0BE8
:10134C00126E14500F0B136E125049EC0EF013501A
:10135C0049EC0EF0B2EF09F01200056E0504D8A4AA
:10136C00BAEF09F0BCEF09F0CDEF09F004507F0F94
:10137C00086E08380F0B066E08500F0B076E0650E0
:10138C0059EC0EF0075059EC0EF01BEF0AF0020E60
:10139C000518D8A4D4EF09F0D6EF09F0E7EF09F05F
:1013AC000450BF0F086E08380F0B066E08500F0B59
:1013BC00076E065059EC0EF0075059EC0EF01BEF6F
:1013CC000AF0030E0518D8A4EEEF09F0F0EF09F0BF
:1013DC0001EF0AF004508F0F086E08380F0B066EE1
:1013EC0008500F0B076E065059EC0EF0075059ECD5
:1013FC000EF01BEF0AF0040E0518D8A408EF0AF043
:10140C000AEF0AF01BEF0AF00450CF0F086E0838F1
:10141C000F0B066E08500F0B076E065059EC0EF0B2
:10142C00075059EC0EF01BEF0AF01200126A10BEB6
:10143C0024EF0AF022EF0AF02AEF0AF00F6C101ECC
:10144C00D8B0102A010E126E0EBE31EF0AF02FEF3B
:10145C000AF037EF0AF00D6C0E1ED8B00E2A010EF2
:10146C00121A000E146E000E136E0F501010D8B41A
:10147C0042EF0AF044EF0AF06CEF0AF0010E116E25
:10148C004CEF0AF0D8900F361036112A10AE51EFEF
:10149C000AF053EF0AF048EF0AF0D89013361436DE
:1014AC000F500D5C10500E58D8A05FEF0AF061EF92
:1014BC000AF066EF0AF00F500D5E10500E5A1380B2
:1014CC00D89010320F32112E53EF0AF01250D8B4BC
:1014DC0072EF0AF074EF0AF078EF0AF0136C141E36
:1014EC00D8B0142A13C00DF014C00EF01200126AFA
:1014FC000EBE85EF0AF083EF0AF08BEF0AF00D6C4D
:10150C000E1ED8B00E2A010E126E10BE92EF0AF00B
:10151C0090EF0AF096EF0AF00F6C101ED8B0102A5C
:10152C000F501010D8B49DEF0AF09FEF0AF0C3EFE4
:10153C000AF0010E116EA7EF0AF0D8900F36103694
:10154C00112A10AEACEF0AF0AEEF0AF0A3EF0AF0DE
:10155C000F500D5C10500E58D8A0B7EF0AF0B9EF31
:10156C000AF0BDEF0AF00F500D5E10500E5AD890D5
:10157C0010320F32112EAEEF0AF01250D8B4C9EF60
:10158C000AF0CBEF0AF0CFEF0AF00D6C0E1ED8B0BC
:10159C000E2A0DC00DF00EC00EF012000F50D8B474
:1015AC00DAEF0AF0DCEF0AF0E4EF0AF00F50D8A4FF
:1015BC00E2EF0AF0E4EF0AF0E9EF0AF00D50B6ECB6
:1015CC000EF028EF0BF00F50D96EDA6A090ED926FF
:1015DC00DE50DE10D8B4F5EF0AF0F7EF0AF010EF9A
:1015EC000BF00F50D96EDA6A090ED9260F50E16E46
:1015FC00E26A020EE126DE50E65CE650800A146ECA
:10160C00DE50800A1458D8B00EEF0BF010EF0BF030
:10161C0028EF0BF00F50D96EDA6A020ED926DF5084
:10162C00106E0F50D96EDA6ADF501024D96EDA6A58
:10163C000DC0DFFF0F50D96EDA6A020ED926DE2AF2
:10164C00000EDD22120082B22EEF0BF030EF0BF009
:10165C003EEF0BF082A435EF0BF037EF0BF03EEFC3
:10166C000BF0010E496EF90ED66ED58E66EF0BF0AF
:10167C0082A243EF0BF045EF0BF053EF0BF082B46B
:10168C004AEF0BF04CEF0BF053EF0BF0010E486EE2
:10169C00EB0ED66ED58E66EF0BF082B258EF0BF0D8
:1016AC005AEF0BF066EF0BF082B45FEF0BF061EFCB
:1016BC000BF066EF0BF0010E476EDC0ED66ED58E7E
:1016CC00010E106E040E4AEC09F01E0E116E115034
:1016DC00D8A4080E126E39EC0CF0120081A479EF2C
:1016EC000BF07BEF0BF08CEF0BF045C00DF0010E07
:1016FC000E6E4650E1EC0CF0010EADEC0DF081B429
:10170C008AEF0BF08CEF0BF085EF0BF081A691EFCD
:10171C000BF093EF0BF0A6EF0BF0B1EC0CF045C017
:10172C000DF0000E0E6E4650E1EC0CF0000EADEC20
:10173C000DF081B6A4EF0BF0A6EF0BF09FEF0BF0C2
:10174C00B6EC0BF00D0E106E010E4AEC09F0010E0A
:10175C00466E0D0E456E93EC0EF0C9EC08F01200BF
:10176C00106A1050410FD96EDA6ADF500F6E0FC03D
:10177C000DF01050FDEC0DF0102A020E1064C9EFA4
:10178C000BF0CBEF0BF0B7EF0BF0116A11503E0FD3
:10179C00D96EDA6ADF500F6E0FC00DF01150030FC7
:1017AC00FDEC0DF0112A020E1164DFEF0BF0E1EFEE
:1017BC000BF0CCEF0BF0126A1250800FD96EDA6A74
:1017CC00DF500F6E0FC00DF01250060FFDEC0DF038
:1017DC00122A020E1264F5EF0BF0F7EF0BF0E2EFAA
:1017EC000BF01200959495969598959A959C959ECC
:1017FC00000E11EC0DF01A0E106EF80EE82EFED73E
:10180C00102EFCD700D0030E49EC0EF0070E106E14
:10181C007D0EE82EFED7102EFCD70000030E49ECEF
:10182C000EF00F0E106E480EE82EFED7102EFCD7C1
:10183C00030E49EC0EF0020E49EC0EF0020E49ECD0
:10184C000EF0080E49EC0EF0000E49EC0EF00C0EEA
:10185C0049EC0EF0000E49EC0EF0060E49EC0EF0C1
:10186C009AEC0EF01200000E166E000E156E59EF6B
:10187C000CF015501124136E16501220146E13C058
:10188C00F6FF14C0F7FFF86A070EF76403D00800E0
:10189C00F55005D0F6CFE1FFF7CFE2FFE750ADEC06
:1018AC000DF0154A162A15501124136E16501220DD
:1018BC00146E13C0F6FF14C0F7FFF86A070EF76436
:1018CC0003D00800F55005D0F6CFE1FFF7CFE2FFCB
:1018DC00E7500009D8A475EF0CF077EF0CF03FEF50
:1018EC000CF012000E6A0E50410FD96EDA6A0E50CF
:1018FC008BEC0EF0DF6E0E2A020E0E6488EF0CF0ED
:10190C008AEF0CF079EF0CF00F6A0F503E0FD96E86
:10191C00DA6A0F50030F8BEC0EF0DF6E0F2A020EFB
:10192C000F649BEF0CF09DEF0CF08BEF0CF0106A3A
:10193C001050800FD96EDA6A1050060F8BEC0EF037
:10194C00DF6E102A020E1064AEEF0CF0B0EF0CF04C
:10195C009EEF0CF0120081B6B6EF0CF0B8EF0CF065
:10196C00BAEF0CF0E0EF0CF0820E196EDE0EE82EE2
:10197C00FED7192EFCD781B6C6EF0CF0C8EF0CF0D1
:10198C00CAEF0CF0E0EF0CF0820E196EDE0EE82EB2
:10199C00FED7192EFCD781B6D6EF0CF0D8EF0CF091
:1019AC00DAEF0CF0E0EF0CF039EC0EF078EC0CF018
:1019BC00C9EC08F012000F6E0C0E0D5E0F04D8A4CB
:1019CC00EAEF0CF0ECEF0CF0F2EF0CF00D50410FD5
:1019DC00D96EDA6A0EC0DFFF020E0F18D8A4F9EF29
:1019EC000CF0FBEF0CF001EF0DF00D50410FD96E28
:1019FC00DA6A0EC0DFFF030E0F18D8A408EF0DF043
:101A0C000AEF0DF010EF0DF00D50410FD96EDA6AA0
:101A1C000EC0DFFF12000D6E0DA017EF0DF019EFC9
:101A2C000DF01CEF0DF08C881DEF0DF08C980DA2B5
:101A3C0022EF0DF024EF0DF027EF0DF08C8A28EF3C
:101A4C000DF08C9A0DA42DEF0DF02FEF0DF032EF61
:101A5C000DF08C8C33EF0DF08C9C0DA638EF0DF047
:101A6C003AEF0DF03DEF0DF08C8E3EEF0DF08C9EAD
:101A7C001200016E01A045EF0DF047EF0DF04AEF9B
:101A8C000DF08C884BEF0DF08C9801A250EF0DF0FF
:101A9C0052EF0DF055EF0DF08C8A56EF0DF08C9A3D
:101AAC0001A45BEF0DF05DEF0DF060EF0DF08C8C91
:101ABC0061EF0DF08C9C01A666EF0DF068EF0DF058
:101ACC006BEF0DF08C8E6CEF0DF08C9E120080A2E3
:101ADC0072EF0DF074EF0DF07DEF0DF08C8680B28F
:101AEC007AEF0DF07CEF0DF075EF0DF08C9680A475
:101AFC0082EF0DF084EF0DF08DEF0DF08C8080B443
:101B0C008AEF0DF08CEF0DF085EF0DF08C9012003C
:101B1C0023C025F09AEF0DF022C017F0250E186E99
:101B2C0024C019F023EC06F025C0F6FF080EF76E62
:101B3C000800F5500009D8A4A6EF0DF0A8EF0DF0A1
:101B4C0092EF0DF0000E236E000E226E1200106E3E
:101B5C0010500F0B0E6E1050F00B0F6E8D800F3857
:101B6C000F0B11EC0DF08D820D0EE82EFED7000040
:101B7C008D920E5011EC0DF08D820D0EE82EFED7CD
:101B8C0000008D921200280E2A6E26C02BF0000E3B
:101B9C002E6E000E2D6E000E356E000E346E2B0E5A
:101BAC00226E27C023F02A0E246E8EEC0DF02650E8
:101BBC002D24D96EDA6ADF6A120014BEE8EF0DF03C
:101BCC00EAEF0DF0F0EF0DF013C013F014C014F0A9
:101BDC00FCEF0DF013C015F014C016F0151E161EF8
:101BEC00154A162A15C013F016C014F012000E6E0A
:101BFC000EC0A9FF0DC0A8FFA69EA69CA684F29EAF
:101C0C00550EA76EAA0EA76EA682F28EA1A811EF92
:101C1C000EF013EF0EF00CEF0EF0A198A69412003C
:101C2C0000EE60F02B0EEE6AE806FDE100EE3EF0F1
:101C3C000C0EEE6AE806FDE14A904A92000EF86E30
:101C4C000001A7EF07F08B0E266E470E276E36C0ED
:101C5C0028F037C029F0C9EC0DF08B0E116E126A0A
:101C6C0039EC0CF012000F6A000E0D6E0F50FDECEB
:101C7C000DF00F2A090E0F6446EF0EF048EF0EF030
:101C8C003AEF0EF012000F6E8D900F5011EC0DF01C
:101C9C008D82060E0E6E300EE82EFED70E2EFCD761
:101CAC0000D08D921200036E8D9003503FEC0DF01E
:101CBC008D82060E026E300EE82EFED7022EFCD759
:101CCC0000D08D9212000F0EC11293689268956A23
:101CDC00966A94689490949C896A8A6A8B6A8C6AD6
:101CEC008D6A1200D08EF286F290F190780ED56E3D
:101CFC00A80EF26EF18412000600F29ED59E8C9412
:101D0C008C96F294F28E4A9211000D6E0DC0A9FFC2
:101D1C00A69EA69CA680A8501200000E49EC0EF0C0
:101D2C000C0E49EC0EF01200000E49EC0EF0010EF8
:101D3C0049EC0EF01200040E49EC0EF0000E49ECCA
:101D4C000EF01200000E49EC0EF0020E49EC0EF0F3
:101D5C001200000E59EC0EF00F0E59EC0EF01200A2
:021D6C00120063
:020000040030CA
:0E0000000008191EFF00A0FF0FC00FE00F4008
:00000001FF
